S014000053414D4432315F31365831302E7372656309
S1130000803400202D010000290100002901000096
S113001000000000000000000000000000000000DC
S113002000000000000000000000000029010000A2
S11300300000000000000000290100002901000068
S113004029010000290100002901000061110000BC
S113005029010000290100002901000029010000F4
S1130060290100002901000029010000D512000027
S113007029010000290100002901000029010000D4
S113008029010000290100002901000029010000C4
S113009029010000290100002901000029010000B4
S11300A029010000290100000517000029010000B2
S11300B00000000010B5064C2378002B07D1054B37
S11300C0002B02D0044800E000BF0123237010BDC0
S11300D010070020000000000C2A0000084B10B597
S11300E0002B03D00749084800E000BF0748036815
S11300F0002B00D110BD064B002BFBD09847F9E72D
S113010000000000140700200C2A00000C2A000044
S11301100000000010B5024B9847024B984710BDF1
S1130120A902000051160000FEE70000F8B52A4AB3
S11301302A4B9A4211D01A00294B9A420DD2294ACD
S113014003339B1A9B0801339B0000222348224956
S11301508C58845004329A42FAD1234A234B9A424F
S11301600AD2D34321495B1803218B4304339B18E0
S1130170002102C29342FCD11D4AFF211D4B8B4337
S11301809360FD3990235B001B4AD1501B4AD378FE
S11301900325AB4302242343D370D3780C27BB43FA
S11301A008263343D370164B987B30229043202289
S11301B010439873997BB943314399739A7BAA434B
S11301C022439A730F4A536880210B4353600E4BAA
S11301D098470E4B9847FEE70C2A000000000020C9
S11301E01007002004000020100700207C140020C9
S11301F000ED00E0000000000070004100500041EC
S11302000048004100400041D127000015140000BF
S1130210044A136A10210B431362034A034B5A80A6
S11302207047C0460004004016420000000C004025
S113023030B50E4B4C22995C0125A943012421437E
S1130240C9B299543620195C3D3A91430D3A114391
S113025019544D215A5CAA432243D2B25A541A5C0F
S11302603E390A4011310A431A5430BD004400415A
S113027010B582B0064B9847002300931033054A0B
S113028005490648064CA047064B984702B010BDE6
S1130290110200002C0700200010004298070020E3
S11302A02D0D00003102000070B50D4B98470D4B29
S11302B098470D4CA36920221343A3610B4D0C4BAB
S11302C06B800C4B984702000B490C480C4B984729
S11302D0226A80231B03134323620A4B6B8070BD85
S11302E0C90F00007102000000040040000C00402F
S11302F0044100005B110000001400407C07002052
S1130300990900002242000070B50020FE4EB0475B
S1130310FE4C7F25A84320700120B047A8432070DD
S11303200220B047A84320700320B047A8432070A0
S11303300420B047A84320700520B047A84320708C
S11303400620B047A84320700720B047A843207078
S11303500820B047A84320700920B047A843207064
S11303600A20B047A84320700B20B047A843207050
S11303700C20B047A84320700D20B047A84320703C
S11303800E20B047A84320700F20B047A843207028
S11303901020B047A84320701120B047A843207014
S11303A01220B047A84320701320B047A843207000
S11303B01420B047A84320701520B047A8432070EC
S11303C01620B047A84320701720B047A8432070D8
S11303D01820B047A84320701920B047A8432070C4
S11303E01A20B047A84320701B20B047A8432070B0
S11303F01C20B047A84320701D20B047A84320709C
S11304001E20B047A84320701F20B047A843207087
S11304102020B047A84320702120B047A843207073
S11304202220B047A84320702320B047A84320705F
S11304302420B047A84320702520B047A84320704B
S11304402620B047A84320702720B047A843207037
S11304502820B047A84320702920B047A843207023
S11304602A20B047A84320702B20B047A84320700F
S11304702C20B047A84320702D20B047A8432070FB
S11304802E20B047A84320702F20B047A8432070E7
S11304903020B047A84320703120B047A8432070D3
S11304A03220B047A84320703320B047A8432070BF
S11304B03420B047A84320703520B047A8432070AB
S11304C03620B047A84320703720B047A843207097
S11304D03820B047A84320703920B047A843207083
S11304E03A20B047A84320703B20B047A84320706F
S11304F03C20B047A84320703D20B047A84320705B
S11305003E20B047A84320703F20B047A843207046
S11305104020B047A84320704120B047A843207032
S11305204220B047A84320704320B047A84320701E
S11305304420B047A84320704520B047A84320700A
S11305404620B047A84320704720B047A8432070F6
S11305504820B047A84320704920B047A8432070E2
S11305604A20B047A84320704B20B047A8432070CE
S11305704C20B047A84320704D20B047A8432070BA
S11305804E20B047A84320704F20B047A8432070A6
S11305905020B047A84320705120B047A843207092
S11305A05220B047A84320705320B047A84320707E
S11305B05420B047A84320705520B047A84320706A
S11305C05620B047A84320705720B047A843207056
S11305D05820B047A84320705920B047A843207042
S11305E05A20B047A84320705B20474EB047474C81
S11305F0A84320705C20B047A84320705D20B0471A
S1130600A84320705E20B047A84320705F20B04705
S1130610A84320706020B047A84320706120B047F1
S1130620A84320706220B047A84320706320B047DD
S1130630A84320706420B047A84320706520B047C9
S1130640A84320706620B047A84320706720B047B5
S1130650A84320706820B047A84320706920B047A1
S1130660A84320706A20B047A84320706B20B0478D
S1130670A84320706C20B047A84320706D20B04779
S1130680A84320706E20B047A84320706F20B04765
S1130690A84320707020B047A84320707120B04751
S11306A0A84320707220B047A84320707320B0473D
S11306B0A84320707420B047A84320707520B04729
S11306C0A84320707620B047A84320707720B04715
S11306D0A84320707820B047A84320707920B04701
S11306E0A84320707A20B047A84320707B20B047ED
S11306F0A84320707C20B047A84320707D20B047D9
S1130700A843207004E0C046F11600003C07002016
S11307107E20B047A84320707F20B047A8432070B4
S11307208020B047A84320708120B047A8432070A0
S11307308220B047A84320708320B047A84320708C
S11307408420B047A84320708520B047A843207078
S11307508620B047A84320708720B047A843207064
S11307608820B047A84320708920B047A843207050
S11307708A20B047A84320708B20B047A84320703C
S11307808C20B047A84320708D20B047A843207028
S11307908E20B047A84320708F20B047A843207014
S11307A09020B047A84320709120B047A843207000
S11307B09220B047A84320709320B047A8432070EC
S11307C09420B047A84320709520B047A8432070D8
S11307D09620B047A84320709720B047A8432070C4
S11307E09820B047A84320709920B047A8432070B0
S11307F09A20B047A84320709B20B047A84320709C
S11308009C20B047A84320709D20B047A843207087
S11308109E20B047A84320709F20B047A843207073
S113082070BDC04610B5064B9847064B1B78012B8C
S113083000D010BD0022034B1A70034B9847F8E711
S1130840451500004B07002009030000EFF3108357
S1130850036072B6BFF35F8F7047BFF35F8F0368A7
S113086083F310887047000070B506000C00150073
S113087000280DD00800431E9841C0B23422054917
S1130880054B984733682A0021003000984770BD13
S11308900020F3E7C8280000190E0000F8B5CE4682
S11308A0474680B5814603689C46002B05D08E6878
S11308B01C0000250127BF1A0DE0124B984718E0D1
S11308C0FB18A06880464344B3420CD22368250039
S11308D0002B0BD01C0063689342F1D8A0688046BB
S11308E043449B1AF0E7A44507D02C002000064B94
S11308F098470CBC90469946F8BD4846014B98472A
S1130900F7E7C046450E0000710E0000F0B5C6467C
S113091000B582B007004469036901339846036156
S1130920037EDB0711D4037E9B070ED4002C10D06A
S1130930434662689B1AA26893420AD314239C46D6
S1130940844463460193124E14E03B7E0222134317
S11309503B7602B004BC9046F0BD7D69E36820009C
S11309609847002DF5D02C0043466A689B1AAA6864
S11309709342EED30198B047237C012BEDD143463B
S11309806360424621000198024B9847E5E7C04660
S1130990790E00009D08000070B505000C000028C9
S11309A011D00800431E9841C0B23B220749084BAE
S11309B0984721002800074B984700232B61064BDA
S11309C02B60002070BD0020EFE7C046DC2800004B
S11309D0190E0000991000000D09000010B5040064
S11309E0431E9841C0B253220749084B9847200040
S11309F0074B9847002804D12000064B9847002055
S1130A0010BD11204042FBE7DC280000190E000055
S1130A1049110000F510000070B582B004000D000B
S1130A20002824D00800431E9841C0B27A221E49EF
S1130A301E4B9847237E0122134323762600143647
S1130A40290030001A4B9847002812D123696B60A3
S1130A50226929003000174B9847237E01229343D3
S1130A602376237E00209B070FD402B070BD0020A4
S1130A70DCE7237E0122934323767E320A49002059
S1130A800A4B984712204042EFE701A80A4B9847C7
S1130A90237E0222934323762000084B984701A823
S1130AA0074B98470020E0E7DC280000190E0000FF
S1130AB0210E00009D0800004D080000591100009F
S1130AC05B08000070B582B004000D00002821D03E
S1130AD00800431E9841C0B295221C491C4B9847FC
S1130AE0237E012213432376260014362900300086
S1130AF0184B984700280FD029003000164B984710
S1130B00237E012293432376237E00209B070ED469
S1130B1002B070BD0020DFE7237E012293432376D9
S1130B2099320A490A4B98470A204042F0E701A843
S1130B300A4B9847237E0222934323762000084BD6
S1130B40984701A8074B98470020E1E7DC280000FC
S1130B50190E0000210E0000870E00004D08000051
S1130B60591100005B08000010B508380023036326
S1130B70436A002B00D0984710BD10B508380023F5
S1130B800363C36A002B00D0984710BD10B504005E
S1130B902C30044B9847236A083C002B01D02000DA
S1130BA0984710BD650F000070B504000E001500D5
S1130BB000281DD000291DD01000431E98413C225E
S1130BC0FF320F490F4B98474423E25A0833E35A44
S1130BD09A4211D1A6644C23E5520022083BE2520A
S1130BE0433B236320000830074B9847280070BD1F
S1130BF00020E4E70020E2E71C204042F7E7C0467B
S1130C00F4280000190E0000C312000070B504009F
S1130C1001000839838F4C228A5A9A420CD00A0068
S1130C20896C5D1C44201552C95C2000044B984714
S1130C302000044B984770BD034B9847FBE7C04620
S1130C40B1120000C3120000CB120000F0B5CE4672
S1130C50474680B585B005000E001700002815D062
S1130C60002913D0002A2AD1AC225200294900209D
S1130C70294B984703A8294B984728003430284B20
S1130C80984703A8274B984700253CE0AC22520024
S1130C9020490020204B984703A8204B984734351F
S1130CA0280001951E4B9847804603A81D4B984782
S1130CB000254346002B26D0002F16D123E0AC227A
S1130CC0520014490120144B984703A8134B98472A
S1130CD0343528000195124B9847804603A8114BE0
S1130CE0984743460025002B0DD000240E4B99460F
S1130CF0651CADB231190198C8470134444502D28C
S1130D00A3B29F42F4D8280005B00CBC9046994683
S1130D10F0BDC046F4280000190E00004D08000084
S1130D20A50F00005B0800001D0F0000F8B50400CB
S1130D300D0016001F00002826D0002926D0002A06
S1130D4026D01800431E98413A221449144B984760
S1130D50200034303A003100124B9847002819D152
S1130D60200008302900104B984700280BD10F4B66
S1130D7063600F4B23600F4BA3600F4BE3600F4B7B
S1130D8023610F4B6361F8BD0020DDE70020DBE742
S1130D900020D9E70D204042F5E7C046F4280000C2
S1130DA0190E0000C90E0000211200004D0C0000B5
S1130DB0A90B00000D0C00008D0B0000690B000056
S1130DC07B0B000010B50400431E9841C0B26122A1
S1130DD00449054B984720000830044B98470020ED
S1130DE010BDC046F4280000190E00009D1200003A
S1130DF010B50400431E9841C0B2F8220349044BC5
S1130E00984720000830034B984710BDF428000091
S1130E10190E0000B9120000002800D100BE70476E
S1130E200368002B0AD08B420AD01B68002B03D026
S1130E309942FAD1012000E0002070470020FCE72D
S1130E400120FAE770B504000D00064B9847012312
S1130E505840C0B239220449044B984723682B6098
S1130E60256070BD210E000014290000190E000039
S1130E7003680B60016070470368002B01D01A6897
S1130E80026018007047002919D0026891420BD003
S1130E90002A16D0136899420AD0002B0DD01A6884
S1130EA0914206D01300F8E713680360012003E0C1
S1130EB013000A681A60012070470020FCE7002034
S1130EC0FAE70020F8E7000070B504000E001500F2
S1130ED000280BD0002918D00120002A07D128228D
S1130EE00C4900200C4B98476B1E07E00020282279
S1130EF00849094B98476B1E2B4208D163600023B5
S1130F00A360E3602660002070BD0020EFE70D20A1
S1130F104042F9E734290000190E000070B50400BE
S1130F200D00002815D00800431E9841C0B240228D
S1130F300A490B4B9847A368E2689A420BD062684F
S1130F4013402268D35C2B70A3680133A360002094
S1130F5070BD0020EBE70A204042F9E73429000085
S1130F60190E000070B504000D00431E9841C0B274
S1130F7051220A490A4B98476368E2681340226881
S1130F80D554E3686168A2689A1A8A4201D9591A49
S1130F90A1600133E360002070BDC0463429000025
S1130FA0190E000010B50400431E9841C0B2672218
S1130FB00349044B9847E068A368C01A10BDC046B3
S1130FC034290000190E000010B5084A53680621A0
S1130FD00B435360064B9847064B98470820064C32
S1130FE0A047064B9847F720A04710BD004000419A
S1130FF07910000041130000011000008913000063
S1131000C30709D5164B802252009A60154A5A60CC
S11310101A005378DB09FCD1830709D5104B02224F
S1131020FF329A60104A5A601A005378DB09FCD1E7
S1131030430709D50A4B812252009A600B4A5A6031
S11310401A005378DB09FCD1030708D5044B084A7E
S11310509A60084A5A601A005378DB09FCD1704739
S1131060000C0040000701000103210002062100DA
S1131070037D000003060100064B1A7AD2B21A72ED
S11310805A7AD2B25A729A7AD2B29A72DA7AD2B2BC
S1131090DA7270470004004070B504000D00431E6E
S11310A09841C0B233221049104B9847E5600123A0
S11310B02B80AB7ADB09FCD1E268937ADB09FCD1A3
S11310C080331380937ADB09FCD1E268936920238F
S11310D09361937ADB09FCD10133E268D371044B49
S11310E01C60002070BDC04658290000190E000085
S11310F04007002010B5041E1DD0C068431E98414F
S1131100C0B26A220D490E4B984708220D4B1A6053
S1131110E268136900231361937ADB09FCD1E26866
S1131120937ADB09FCD1138802210B431380937A51
S1131130DB09FCD110BD0020E3E7C04658290000BC
S1131140190E000000E100E0C268937ADB09FCD1CB
S113115010888007C00F7047704700207047000058
S113116010B5074B1C68E3681B7ADB0707D52368B7
S1131170002B01D020009847E36801221A7210BDA9
S11311804007002010B504001F4BC3189B0ADBB2B4
S1131190022B04D01D4A1E4900201E4B9847E369C8
S11311A0DB0718D40322E3691A42FCD123689B07A6
S11311B00BD523680222934323600132E3691A4268
S11311C0FCD10222E3691A42FCD1052323600322E5
S11311D0E3691A42FCD10122E3691A42FCD10E4BA5
S11311E023600322E3691A42FCD1C0239B0263609B
S11311F00722E3691A42FCD1084BA3810023A3739D
S11312003022A354002010BD00F8FFBD5E02000090
S113121070290000190E000004001040098AFFFF25
S113122070B505000C00431E9841C0B2C422144995
S1131230144B98472000144B9847002800D070BDE9
S1131240AC61124B9C4217D0114B9C466444A40AD7
S11312500934E3B22206F2D41F221A400123934038
S11312600C4A80215350BFF34F8FBFF36F8F01316E
S1131270FF3153501360E2E7074B1D600B23EBE78C
S113128070290000190E00008511000000100042B2
S113129000F8FFBD00E100E0440700208269136804
S11312A002210B4313600131D3691942FCD1704709
S11312B0836989B2198570478369187E01231840B0
S11312C07047836901229A757047836902229A756F
S11312D07047000010B5194B18688469237EDB073A
S11312E002D5A37DDB070FD4237E9B0702D5A37D04
S11312F09B070ED4237E5B0715D5628B37231A42D6
S11313000CD00833638310BD012323750368984709
S1131310F9E70223237583689847F4E7218DC9B25E
S113132043689847EFE7237EDB09ECD080232376DC
S1131330C3689847638B9BB26383E4E74407002048
S11313400F4B1A6A196A0F480240890F8907A120B6
S1131350400001430A431A629A6902210A439A61CE
S11313601A7F1D310A401A7719000822CB681A42E5
S1131370FCD0034A136A80210B4313627047C046B2
S1131380000800400000FF0F8622D2011D4B5A8046
S113139002221D4B9A8419000E32CB681A42FCD0EB
S11313A01A4A194BDA621A4B1B689B0E3F2B1FD04B
S11313B09B02802292001343134A93620623938470
S11313C0938C5B0717D51100D022CB681340D02B28
S11313D0FBD10D4A938C80210B439384094A5378A3
S11313E0DB09FCD1084A936902218B43936170475E
S11313F0FC23DB01E0E704491022CB681A42FCD04D
S1131400E7E7C046000C004000080040DC050A285D
S11314102460800010B5024B9847024CA047FDE7BA
S1131420150100002508000010B50248024B98473A
S113143010BDC04698070020C50D0000F0B5C64693
S113144000B584B00E236B4400221A801B889BB223
S11314509F2B56D80E256D442C4F2D4B98460FE0EC
S1131460288880B22B4B9847288880B22A4B98470B
S11314702B8801339BB22B802B889BB29F2B40D8A7
S1131480288880B2B84704000822002101A8C04778
S11314900A2201A92000214B984701A8204B984714
S11314A082B201A91F48204B98471E4C1F4E2000B2
S11314B0B0470028FBD001221D491A481A4B98470F
S11314C0184C1A4E2000B0470028FBD001221849BE
S11314D01448154B9847134C144E2000B04700286D
S11314E0FBD02B889BB29F2BBAD1012211490D4806
S11314F00D4B98470B4E0D4C3000A0470028FBD0F5
S1131500AEE704B004BC9046F0BDC046C916000066
S113151019280000DD160000F1160000AD280000B7
S1131520292800009807002069080000F10D000038
S11315308C290000902900000122014B1A70704789
S11315404807002010B51D4B5B78012B04D01B4BC2
S11315501B78012B0AD010BD19491A481A4B984719
S11315600028F4D10022154B5A70F0E70022134BE7
S11315701A70164B984700280BD112480C30144BA4
S1131580984700280AD002220C4B9A70114B9847B6
S113159004E00122094B9A700E4B9847094BDB6813
S11315A01B787F2B05D80122044BDA70094B98472E
S11315B0D1E70122014B5A70F8E7C04648070020E2
S11315C0391500000000002079240000F91F0000F4
S11315D0D91700003D14000010B50122024B5A70C7
S11315E01420024B984710BD48070020A1170000A3
S11315F010B5014B984710BDD915000070B50E4BBE
S11316001B79002B11D10C4C142323610B4B636108
S11316100126267621000831094D2800094B9847F8
S113162026712800084B984770BD034908310448C7
S1131630064B9847E7E7C04648070020F11500002D
S11316407C070020190A0000DD090000C50A00001B
S1131650F8B5134B98471348134B98471348144B4A
S1131660984700240F4D134F134E21002800B8470C
S113167021002800B0470134A4B2A02CF5D10F4DAD
S11316800024084E0C360E4FE1B22A003000B84751
S11316900134A4B20635A02CF6D10A4B9847F8BD04
S11316A0FD1500000000002039230000B00B0020CD
S11316B0652400006525000085250000F007002052
S11316C0B117000029140000430018184000024B11
S11316D0181840887047C046F007002043001818C7
S11316E04000024B181880887047C046F00700205D
S11316F0034B5A69430018188000105C7047C046B9
S11317000000002010B5024B9847024B984710BDCB
S1131710D5250000F9250000F7B5032213004B433B
S1131720093216004E438468A619C5687268EB181E
S1131730528836899F781B78921BD21A43680020FE
S11317401B8812040193120C019B984222D08842F8
S11317501AD0AB78BB4217D123787B331B061B0E00
S1131760012B19D923899C4663685B889C450BD25D
S113177066469B1B2E781B041B0CB34204D99B1B8F
S11317801B041B0C9A4207D301300004000C0335E0
S11317900C34D9E7002000E00120FEBC02BC08475D
S11317A0024A1388C01810807047C046640700209E
S11317B010B50B2300280BD0002A09D001330C00EC
S11317C05C4381680B3B0B558368191900234A60FD
S11317D0180010BC02BC0847F0B5040085B00B200B
S11317E0002C00D175E200260096019661680B88F2
S11317F0B34200D826E10C277743A368DD192B7880
S1131800042B6ED005D8022B1AD02FD8012B0AD066
S113181014E1852B00D184E0862B00D1B2E0072BA4
S113182000D00BE1E3E001931E236A6812781A42A8
S113183000D003E11C3B2B70A368DF190823FCE0F4
S11318406A78002A0FD06968042A01D94B8807E016
S11318502B8949888B4204D001D9013B00E0013334
S11318602B81531EE1E003232B70E7E06B682A8988
S11318705B889A4200D1E1E0E06815D9D31A0322CB
S11318807243825C487902411B0412061B0C120E3F
S1131890934200DAD2E00B79002B00D1CEE007238B
S11318A02B7063681B7918E00321714341189B1A5C
S11318B00A781B041B0C9A4200D9BFE08B78002BDA
S11318C007D031002000A84B00F00AFA002800D00D
S11318D0B4E004232B7063689B78A268D7197B70EB
S11318E0A4E06B6829895B88994200D9A0E00322AF
S11318F07243E06882185B1A11781B041B0C99422E
S113190000D395E09378002B07D031002000964B4C
S113191000F0E6F9002800D090E06B78002B50D05E
S113192082E00B7A22681371A368D9190B899C464B
S11319304B685D88AC4507D986230B706368A26841
S11319409B78D7197B704EE003207043E368181826
S11319500278130040780130034118006346121ADC
S11319600120EB1A12061B04120E1B0C00909A4263
S113197064D386230B706368A2689B78D7197B7045
S1131980030032E06B6828895B889C46984205D93D
S11319906B78002B20D0013B6B701FE00321714357
S11319A0E36859180A781300497801310B4119008A
S11319B06346521A1B1A12061B04120E1B0C9A427F
S11319C007D285232B706368A268DB78D7197B70F4
S11319D004E06B78002B04D103332B7001230093B4
S11319E02CE0013B6B7001230093019326E06A68AD
S11319F02B89528893421BD99B1A03227243E068B5
S1131A004979125C0A411B0412061B0C120E934204
S1131A100EDB6B78002B07D1032201332B70A368F4
S1131A20DF197B681A7009E0013B6B700123DCE766
S1131A3003232B70A368DF1900237B70013636045F
S1131A40360CD3E623681B787F2B1DD900230C2684
S1131A5001200827626812889A4210D932005A433A
S1131A60A1688A1855682978014204D11278BA43CA
S1131A7001D00143297001331B041B0CEAE77F23C7
S1131A80226811780B401370019B002B07D1009A38
S1131A9001212368002A58D11A788A4357E06368E1
S1131AA05B7A002BF3D080212268137849420B43E0
S1131AB0137063685B7A012BE9D100220393636896
S1131AC018888242E3D20C215143A3685918019328
S1131AD00B7808261D00B54329D0852B01D0032B94
S1131AE02AD103235343E768FB189B789C46002BB9
S1131AF01DD000230293834216D29A4210D00C25A3
S1131B005D43019EAD5D042D01D0862D08D10325D2
S1131B105D437D19AD78654502D101250300029529
S1131B2001331B041B0CE6E7029B002B04D149681C
S1131B3003980B78834303E0496803980B780343C5
S1131B40013212040B70120CB9E71A780A431A70A6
S1131B50226852881100054B1B88C8318B420DD86E
S1131B60934205D30020B4E0191700006407002055
S1131B705A495918891AC829F4D9013B9B1A1B04DC
S1131B801B0CC82BEED922685188C831C83B518040
S1131B9011791B041B0C002951D15179002901D062
S1131BA00139517121688A79002A01D0013A8A7178
S1131BB06668B279002A1ED02768797900291AD17B
S1131BC03288009200980A04120C904211D90C2217
S1131BD04A43A568AA181578032D01D0082D06D10B
S1131BE0506815894088A84201D901351581013111
S1131BF0E8E7B2797A716668F279002A21D0276819
S1131C00B97900291DD13288009200980A04120C77
S1131C10904211D90C224A43A06882181578032DEA
S1131C2001D0082D06D1506815894088A84201D2F8
S1131C30013D15810131E8E7F279BA7101E001391A
S1131C4011716268D2780021002A9AD062681288E1
S1131C508A4296D90C254D43A26856193278852AB2
S1131C6033D17278002A02D0013A72702DE001203B
S1131C703070A068451903206D68287003254D4312
S1131C80E0684519AF78002F1FD060680588954239
S1131C901BD903255543E0684519AD78BD4210D1E1
S1131CA00C255543A06800954619012570680078F5
S1131CB0284206D03570009DA068451903206D6840
S1131CC0287001321204120CDFE701310904090CF7
S1131CD0BCE705B0F0BC02BC0847C046FFFF0000EB
S1131CE01847C0467F21044A53788B43DBB2002B4C
S1131CF001D05378F9E77047004C0042204BF0B50F
S1131D001C68062343431A00A36800209A185388CA
S1131D108B4233D001D2C91A00E0591A246889B21F
S1131D20A378402B00D149080120842926D800201B
S1131D30052923D997880F223D00BB04CF303E12DA
S1131D409B0F43431640BA3846433F1115403A406F
S1131D509B1952009A1893B2052D04D90133053DFD
S1131D609BB2EDB2F8E7E27806489206920F520071
S1131D70105A414388B2834280414042F0BDC0467C
S1131D807414002096290000F0B5062401250C499E
S1131D900C4A096813880868008883420BD226001D
S1131DA05E438F68F65D2E4202D101339BB2F4E7A5
S1131DB01380002002E0002301201380F0BDC04600
S1131DC07414002068070020F0B5664C87B0070043
S1131DD0A0470221644B654D1A7826008A431A7085
S1131DE0FA0003922A68F90052681C00521892788B
S1131DF05F4B510701D419691DE0110705D48020F8
S1131E0019695C4A4001114006E0D10609D48020DA
S1131E101969584A800111400143196159690A40FE
S1131E2007E01969920606D4C020800101431961B4
S1131E305A69024304E04F4A1140196159690A4042
S1131E405A61B0472B68FA005B689B185B88238251
S1131E50B0472B68FA005B689B5A6382B04706233D
S1131E602A685F439368DB199B8823839368DB1993
S1131E701978890701D5052119709368DF5DB0478A
S1131E80FF067F0F3F23002F08D12B68039A5B685E
S1131E909B185B79384A1B09D3181B7AA376B04781
S1131EA02B68039A5B68304F9B181B791B09E376F8
S1131EB0B04703212B68039A5B689B181A7923792E
S1131EC00A408B4313432371B04707212B68022533
S1131ED0039A5B689B189A79637B0A408B4313438C
S1131EE06373B04723782B432370244B5B680393BD
S1131EF0002B2ED00124B0473B7B1B071B0F049300
S1131F00B0473B799B079B0F0593B0473B78AB43A6
S1131F103B70B0477B791C43B04708212C43184BD6
S1131F20E4B27C711A6813780B431370B0477C7B5E
S1131F30B04707227B7BE4B293437B73059A114B32
S1131F40009404990020039CA047B0473B781D43AC
S1131F503D70B04780227B7B524213437B7307B0B2
S1131F60F0BDC046E51C0000004C00427414002083
S1131F7000440042FFCFFFFF9629000068070020BD
S1131F80701400200D4C0042154BF7B51B681B68FC
S1131F909A78402A01D1134A03E00220802A1DD1F5
S1131FA0114A04210F241278114301911B791C401A
S1131FB00F2B00D9102460230C4E1C43B04704237C
S1131FC000250B4FE4B23B70B0473D71B0473C7302
S1131FD0B0476B4628001A79064BDA77FEBDC04637
S1131FE0741400209429000095290000E51C0000C9
S1131FF0004C0042014C00420322F0B5BD4B87B0B7
S11320001B7A0492002B00D191E1BB4B1D68BB4BA2
S11320101B6805930023029304932968029A0B8892
S1132020934200D874E1029B059A5B009C5A0623F4
S1132030029A072753430393039AAB689446634475
S113204001930198029B0078DE006B6880089B195D
S11320509A793840042800D945E100F023FB0500B3
S113206011000A01E800450159790F230B400021B2
S11320709A4201D9D21AD1B20C41019B5C8033E15E
S11320801441019BA4B25C8098889D4B9C4204D966
S11320909C4BE418A4B2012302E01C1B0023A4B24D
S11320A08A78402A03D16408002B02D00BE0002B6D
S11320B009D0954B0021984206D18123019A1370CF
S11320C0733B049302E00121042C33D8039AAB68D8
S11320D09B181A78510623D452B2002A22DB2A68AC
S11320E0D17803220A40022A07D16B680D329E1967
S11320F033799343337109230EE0012A10D16B68BD
S11321000E329B1919790A401A7130226B689E1994
S11321103379134333710D23AA680399535401E0AF
S113212001221A70A968039B8C468004800C6344C6
S11321309880D9E00F27820403120611920F3B40C6
S11321403E403840002938D1CF2C0CD9032A0AD07C
S11321500132CF3CD2B2A4B2F6E70F2B07D0013341
S1132160153CDBB2A4B2152CF7D80F2B0CD10F23DE
S1132170032A09D00132D2B2052305E00E2E05D878
S11321800136023CF6B2A4B2022CF7D80F2E04D1C9
S11321900F2B38D005260133DBB2032A00D0C0E070
S11321A00F2B00D0BDE00F2E00D0BAE02EE0002AA5
S11321B00CD0013ACF3CD2B2A4B2CF2CF7D805E070
S11321C0002B07D0013B153CDBB2A4B2152CF7D889
S11321D0002B0BD1131E09D0013AD2B20A2305E019
S11321E0002E07D0013E023CF6B2A4B2022CF7D86E
S11321F0002E12D1002B00D197E0013BDBB20A265E
S1132200022CDAD809E0032A00D08AE0022C00D894
S113221082E00F2003220600030012031B0297B280
S11322201F4338433601019B304398805CE01441DE
S11322301F79A4B23F09032F10D021000298334B19
S11322409847002801D1013701E0002F03D1012371
S1132250019A137003E0013FFFB200E002270F224E
S11322606B683F019B1919790A401A716B689E19B2
S113227020E01F7914410F23A4B21F4011D0210084
S11322800298224B9847002802D1013FFFB201E097
S1132290032F03D10123019A137003E00137FFB226
S11322A000E001270F216B689B191A798A431A7180
S11322B06B689E1933791F433771A968039B8C4659
S11322C063441A005C801B78012B0DD10C4B9C429B
S11322D002D90C4BE41800E01C1BA4B2052C03D952
S11322E04523137000E0FEE7029B01339BB2029387
S11322F093E6C04668070020741400207814002078
S1132300FF01000001FEFFFFFF3F0000FD1C000075
S11323100222084B1A720AE00F260322300033000F
S11323207BE7022C00D90FE777E71E0075E70498D6
S113233007B0F0BD68070020F7B580243F49404B43
S11323400A69E4001A4022430A614A690B261340D1
S113235023434B6100286ED003681988002300933F
S113236001939AB291420CD94468DA00A2181488F5
S1132370019D0133254301955288009C1443009428
S1132380EFE7009B0226002B55D0019B009A1B040B
S11323901A439446002001210F242A4F0E37634626
S11323A0C3400B4225D0C35D1F2B0ED8264D5A08BF
S11323B0521915780B4203D010262540354301E00D
S11323C0A5430D431570214A0FE0203B204DDBB29D
S11323D05A08521915780B4203D01026254035436C
S11323E001E0A5430D4315701A4A9B181A780A4355
S11323F01A7001302028D2D1174DA8470023174C5A
S1132400174F23703E7A002E0AD1A8476B469B884B
S1132410E382A8476B461B88A38201233B720AE030
S11324200026A847E38A019A1A43E282A847A38AAE
S1132430009A1A43A2823000FEBDC0460044004206
S1132440FFF8FFFF9629000030440041404400415A
S1132450B0440041C0440041E51C0000004C00426F
S1132460680700200B23002802D0024B18600023C9
S11324701800704778140020F7B5070000910B246A
S1132480002957D0002855D02B4D083C2B7A002B1F
S113249050D0042B01D101244CE07F22274E737BC2
S11324A093430193F7D1022403685B79013BA34270
S11324B040D8234B98473378A3433370214B1F6094
S11324C0009BEB60204B98478022204BD204DA67B4
S11324D00723B3721A4B98470122737A802113435E
S11324E073721B4BC6201A70C023FF26194A5B0067
S11324F0C904D150800013583A6836045179164AF9
S1132500890531401A400B001343124A135013003B
S11325108022D2041A606B469B882B800F4B98470D
S1132520061E06D1042328882B720D4B98473400CD
S113253000E02C722000FEBD68070020004C004221
S1132540E51C000074140020891F000004E100E071
S11325500E07002000E100E0FFFF00FF891D0000DE
S1132560C91D00000B2300280AD003681A8802231F
S11325708A4205D3043359438268053B8B540023B4
S113258018007047020010B50B20002A1FD01368F2
S113259009381C888C421AD39B789268402B05D149
S11325A08D203A3B4B438000D31807E0803BDBB2DD
S11325B0012B05D806234B430548D31898800020E7
S11325C006235943511802220B7813430B7010BD94
S11325D0670500000220074B9A7AD2B2024202D069
S11325E0997A0143997201210A4202D09A7A0A43E4
S11325F09A727047004C004270B5214B98470222F2
S1132600204C2378934323701F4B9847A18BA08BB6
S11326101E4C1F4A238812685B00D0521D4B89B29E
S11326201B782500012B02D0022B0FD027E0238832
S113263001332380184B9847002805D1174B208875
S11326409847042323721AE0E36817E0144B1E68CA
S113265023887268DC0014190F2260791040A27973
S11326600024904201D2121AD4B20622E14053430C
S1132670B068C318598002232B722B69984770BD28
S1132680E51C0000004C0042D5250000680700202E
S1132690781400200E070020891D0000C91D0000C9
S11326A07414002003B47146490840004900095AD3
S11326B049008E4403BC7047002243088B4274D304
S11326C003098B425FD3030A8B4244D3030B8B422F
S11326D028D3030C8B420DD3FF22090212BA030C38
S11326E08B4202D31212090265D0030B8B4219D319
S11326F000E0090AC30B8B4201D3CB03C01A524139
S1132700830B8B4201D38B03C01A5241430B8B4280
S113271001D34B03C01A5241030B8B4201D30B0369
S1132720C01A5241C30A8B4201D3CB02C01A524190
S1132730830A8B4201D38B02C01A5241430A8B4253
S113274001D34B02C01A5241030A8B4201D30B023C
S1132750C01A5241CDD2C3098B4201D3CB01C01A56
S1132760524183098B4201D38B01C01A5241430960
S11327708B4201D34B01C01A524103098B4201D34E
S11327800B01C01A5241C3088B4201D3CB00C01ABB
S1132790524183088B4201D38B00C01A5241430833
S11327A08B4201D34B00C01A5241411A00D2014658
S11327B0524110467047FFE701B5002000F006F8CB
S11327C002BDC0460029F7D076E770477047C0467F
S11327D070B500260C4D0D4C641BA410A64209D103
S11327E0002600F003F90A4D0A4C641BA410A6420B
S11327F005D170BDB300EB5898470136EEE7B3003E
S1132800EB5898470136F2E7F8290000F829000050
S1132810F8290000FC29000003008218934200D12B
S1132820704719700133F9E70023C25C0133002AB1
S1132830FBD1581E70470000F0B517008FB0252259
S113284006000D0004A8184900F034F804AABB1EC1
S113285000240392222B05D92C70250028000FB0E8
S1132860F0BD019C631C0193EB1800933000013B05
S113287039000293FFF7A6FF039B029A5B5C3000CA
S113288013703900FFF718FF061EEAD1009B187079
S11328902B005A1B9442E1DD1A78295D19702A55E0
S11328A00133013CF5E7C046C429000010B5FFF729
S11328B0C3FF10BD002310B59A4200D110BDCC5CFB
S11328C0C4540133F8E700002E2E2F68616C2F7377
S11328D072632F68616C5F696F2E63002E2E2F6800
S11328E0616C2F7372632F68616C5F74696D6572BC
S11328F02E6300002E2E2F68616C2F7372632F6875
S1132900616C5F75736172745F6173796E632E635A
S1132910000000002E2E2F68616C2F7574696C7393
S11329202F7372632F7574696C735F6C6973742E83
S1132930630000002E2E2F68616C2F7574696C7310
S11329402F7372632F7574696C735F72696E67623B
S113295075666665722E63002E2E2F68706C2F725A
S113296074632F68706C5F7274632E6300000000E0
S11329702E2E2F68706C2F736572636F6D2F6870C5
S11329806C5F736572636F6D2E630000200000003E
S11329900A00000080A007001300350090003F1CCF
S11329A00B05030102030405060720212223242525
S11329B02627282908090A0B1011121314151617B3
S11329C02C2D2E2F3031323334353637383961627D
S11329D0636465666768696A6B6C6D6E6F7071724B
S11329E0737475767778797A00000000F8B5C0467C
S11329F0F8BC08BC9E467047DD000000F8B5C04630
S10F2A00F8BC08BC9E467047B5000000FE
S1132A0C0807002008020020F0070020E807002037
S1132A1CFC010020F00C00201C0000201401001408
S1132A2C010014010014010014010014010014012C
S1132A3C001401001401001401001401001401001D
S1132A4C14010014010014010014010014010014F9
S1132A5C01001401001401001401001401001401FC
S1132A6C00140100140100140100140100140100ED
S1132A7C14010014010014010014010014010014C9
S1132A8C01001401001401001401001401001401CC
S1132A9C00140100140100140100140100140100BD
S1132AAC1401001401001401001401001401001499
S1132ABC010014010014010014010014010014019C
S1132ACC001401001401001401001401001401008D
S1132ADC1401001401001401001401001401001469
S1132AEC010014010014010014010014010014016C
S1132AFC001401001401001401001401001401005D
S1132B0C1401001401001401001401001401001438
S1132B1C010014010014010014010014010014013B
S1132B2C001401001401001401001401001401002C
S1132B3C1401001401001401001401001401001408
S1132B4C010014010014010014010014010014010B
S1132B5C00140100140100140100140100140100FC
S1132B6C14010014010014010014010014010014D8
S1132B7C01001401001401001401001401001401DB
S1132B8C00140100140100140100140100140100CC
S1132B9C14010014010014010014010014010014A8
S1132BAC01001401001401001401001401001401AB
S1132BBC001401001401001401001401001401009C
S1132BCC1401001401001401001401001401001478
S1132BDC010014010014010014010014010014017B
S1132BEC001401001401001401001401001401006C
S1132BFC140100140100140100140100A0000400CD
S1132C0C00000000000100000100010000000400AD
S1132C1C0200010000000400040001000000040094
S1132C2C0800010000000400100001000000040072
S1132C3C200001000000040040000100000004001A
S1132C4C80000100000004000001010000000400E9
S1132C5C0002010000000400000401000000040054
S1132C6C0008010000000400001001000000040032
S1132C7C00200100000004000040010000000400DA
S1132C8C00800100000004000100020000000400A8
S1132C9C0200020000000400040002000000040012
S1132CAC08000200000004001000020000000400F0
S1132CBC2000020000000400400002000000040098
S1132CCC8000020000000400000102000000040067
S1132CDC00020200000004000004020000000400D2
S1132CEC00080200000004000010020000000400B0
S1132CFC0020020000000400004002000000040058
S1132D0C0080020000000400010004000000040024
S1132D1C020004000000040004000400000004008D
S1132D2C080004000000040010000400000004006B
S1132D3C2000040000000400400004000000040013
S1132D4C80000400000004000001040000000400E2
S1132D5C000204000000040000040400000004004D
S1132D6C000804000000040000100400000004002B
S1132D7C00200400000004000040040000000400D3
S1132D8C008004000000040001000800000004009E
S1132D9C0200080000000400040008000000040005
S1132DAC08000800000004001000080000000400E3
S1132DBC200008000000040040000800000004008B
S1132DCC800008000000040000010800000004005A
S1132DDC00020800000004000004080000000400C5
S1132DEC00080800000004000010080000000400A3
S1132DFC002008000000040000400800000004004B
S1132E0C0080080000000400010010000000040011
S1132E1C0200100000000400040010000000040074
S1132E2C0800100000000400100010000000040052
S1132E3C20001000000004004000100000000400FA
S1132E4C80001000000004000001100000000400C9
S1132E5C0002100000000400000410000000040034
S1132E6C0008100000000400001010000000040012
S1132E7C00201000000004000040100000000400BA
S1132E8C0080100000000400010020000000040079
S1132E9C02002000000004000400200000000400D4
S1132EAC08002000000004001000200000000400B2
S1132EBC200020000000040040002000000004005A
S1132ECC8000200000000400000120000000040029
S1132EDC0002200000000400000420000000040094
S1132EEC0008200000000400001020000000040072
S1132EFC002020000000040000402000000004001A
S1132F0C00802000000004000100400000000400C8
S1132F1C0200400000000400040040000000040013
S1132F2C08004000000004001000400000000400F1
S1132F3C2000400000000400400040000000040099
S1132F4C8000400000000400000140000000040068
S1132F5C00024000000004000004400000000400D3
S1132F6C00084000000004000010400000000400B1
S1132F7C0020400000000400004040000000040059
S1132F8C00804000000004000100800000000400E8
S1132F9C0200800000000400040080000000040013
S1132FAC08008000000004001000800000000400F1
S1132FBC2000800000000400400080000000040099
S1132FCC8000800000000400000180000000040068
S1132FDC00028000000004000004800000000400D3
S1132FEC00088000000004000010800000000400B1
S1132FFC0020800000000400004080000000040059
S113300C00808000000004000100000100000400A6
S113301C0200000100000400040000010000040090
S113302C080000010000040010000001000004006E
S113303C2000000100000400400000010000040016
S113304C80000001000004000001000100000400E5
S113305C0002000100000400000400010000040050
S113306C000800010000040000100001000004002E
S113307C00200001000004000040000100000400D6
S113308C00800001000004000100000200000400A4
S113309C020000020000040004000002000004000E
S11330AC08000002000004001000000200000400EC
S11330BC2000000200000400400000020000040094
S11330CC8000000200000400000100020000040063
S11330DC00020002000004000004000200000400CE
S11330EC00080002000004000010000200000400AC
S11330FC0020000200000400004000020000040054
S113310C0080000200000400A00040300002010016
S9030000FC
